:100000000C9435000C945D000C945D000C945D0024
:100010000C945D000C945D000C945D000C945D00EC
:100020000C945D000C945D000C945D000C945D00DC
:100030000C945D000C945D000C945D000C945D00CC
:100040000C9428020C945D000C94F6010C94D001E1
:100050000C945D000C945D000C945D000C945D00AC
:100060000C945D000C945D00040411241FBECFEFBE
:10007000D8E0DEBFCDBF11E0A0E0B1E0E4E5FCE0F8
:1000800002C005900D92A233B107D9F721E0A2E397
:10009000B1E001C01D92AA3DB207E1F710E0C5E34F
:1000A000D0E004C02197FE010E941D06C433D10791
:1000B000C9F70E9472020C9428060C940000CF929B
:1000C000DF92EF92FF920F931F93CF93DF936C0118
:1000D0007A018B01C0E0D0E0CE15DF0589F0D801B0
:1000E0006D918D01D601ED91FC910190F081E02D93
:1000F000C6010995892B11F47E0102C02196ECCF2F
:10010000C701DF91CF911F910F91FF90EF90DF908A
:10011000CF900895FC01918D828D981761F0828DAA
:10012000DF01A80FB11D5D968C91928D9F5F9F732B
:10013000928F90E008958FEF9FEF0895FC01918DCD
:10014000828D981731F0828DE80FF11D858D90E03A
:1001500008958FEF9FEF0895FC01918D228D892FD7
:1001600090E0805C9F4F821B91098F7399270895BF
:100170008DE391E00E94AC0021E0892B09F420E09E
:10018000822F0895FC01848DDF01A80FB11DA35AB1
:10019000BF4F2C91848D90E001968F739927848FA7
:1001A000A689B7892C93A089B1898C9180648C939E
:1001B000938D848D981306C00288F389E02D808189
:1001C0008F7D80830895EF92FF920F931F93CF93BB
:1001D000DF93EC0181E0888F9B8D8C8D981305C097
:1001E000E889F989808185FD24C0F62E0B8D10E009
:1001F0000F5F1F4F0F731127E02E8C8DE8120CC07C
:100200000FB607FCFACFE889F989808185FFF5CF21
:10021000CE010E94C200F1CF8B8DFE01E80FF11DCF
:10022000E35AFF4FF0820B8FEA89FB89808180625D
:1002300007C0EE89FF896083E889F989808180643D
:10024000808381E090E0DF91CF911F910F91FF902B
:10025000EF900895CF93DF93EC01888D8823C9F048
:10026000EA89FB89808185FD05C0A889B9898C91BF
:1002700086FD0FC00FB607FCF5CF808185FFF2CF5A
:10028000A889B9898C9185FFEDCFCE010E94C2006B
:10029000E7CFDF91CF91089580E090E0892B29F09E
:1002A0000E94B80081110C94000008953FB7F894A3
:1002B0008091370190913801A0913901B0913A01B4
:1002C00026B5A89B05C02F3F19F00196A11DB11DB1
:1002D0003FBFBA2FA92F982F8827820F911DA11DEC
:1002E000B11DBC01CD0142E0660F771F881F991F29
:1002F0004A95D1F70895009769F0FC01019000201C
:10030000E9F73197AF01481B590BBC018DE391E030
:100310000C945F0080E090E008958F929F92AF92DE
:10032000BF920F931F93CF93DF93CDB7DEB7A19703
:100330000FB6F894DEBF0FBECDBF19A2423008F44D
:100340004AE08E010F5D1F4F842E912CA12CB12C01
:10035000A50194010E94FB05E62FB901CA010150D5
:100360001109EA3014F4E05D01C0E95CD801EC93B6
:10037000232B242B252B61F7C8010E947B01A1961A
:100380000FB6F894DEBF0FBECDBFDF91CF911F91A6
:100390000F91BF90AF909F908F9008950E94230679
:1003A0001F920F920FB60F9211242F933F934F93EA
:1003B0005F936F937F938F939F93AF93BF93EF93CD
:1003C000FF938DE391E00E94C200FF91EF91BF91F6
:1003D000AF919F918F917F916F915F914F913F91DD
:1003E0002F910F900FBE0F901F9018951F920F9294
:1003F0000FB60F9211242F938F939F93EF93FF9338
:10040000E0914D01F0914E018081E0915301F09116
:10041000540182FD12C09081809156018F5F8F73CD
:1004200020915701821751F0E0915601F0E0E35C12
:10043000FE4F958F8093560101C08081FF91EF910F
:100440009F918F912F910F900FBE0F901F90189535
:100450001F920F920FB60F9211242F933F938F93F9
:100460009F93AF93BF938091330190913401A091FA
:100470003501B09136013091320123E0230F2D3741
:1004800020F40196A11DB11D05C026E8230F029698
:10049000A11DB11D2093320180933301909334014B
:1004A000A0933501B09336018091370190913801C6
:1004B000A0913901B0913A010196A11DB11D80931F
:1004C000370190933801A0933901B0933A01BF915D
:1004D000AF919F918F913F912F910F900FBE0F90F1
:1004E0001F901895789484B5826084BD84B581602E
:1004F00084BD85B5826085BD85B5816085BD8091EF
:100500006E00816080936E00109281008091810066
:10051000826080938100809181008160809381005E
:10052000809180008160809380008091B100846020
:100530008093B1008091B00081608093B000809181
:100540007A00846080937A0080917A008260809340
:100550007A0080917A00816080937A0080917A009D
:10056000806880937A001092C100E0914D01F09173
:100570004E0182E08083E0914901F0914A011082AE
:10058000E0914B01F0914C018FEC8083109255016A
:10059000E0915101F091520186E08083E0914F019A
:1005A000F0915001808180618083E0914F01F09152
:1005B0005001808188608083E0914F01F09150016B
:1005C000808180688083E0914F01F09150018081AB
:1005D0008F7D808311E4C8E8D3E110937C00809183
:1005E0007A00806480937A0080917A0086FDFCCF47
:1005F000809178002091790090E0922B90933C01BB
:1006000080933B018C9FB0018D9F700D9C9F700D5E
:10061000112477FF02C061507C4F672F770F770B53
:1006200065956595072E000C880B990B0E94D404E4
:1006300020E030E040E251E40E9489056B017C013A
:100640004B015C0180E191E00E947B01A7019601D2
:10065000C701B6010E94F605882319F08FE191E0E9
:100660001AC026013701E89477F82FEF3FEF4FE7E4
:100670005FE7C301B2010E94F60581110FC02FEFA1
:100680003FEF4FE75FE7C301B2010E949E041816D7
:100690002CF483E291E00E947B0184C02FEF3FEFB6
:1006A0004FE75FE4C701B6010E94840518161CF4E9
:1006B00087E291E0F0CF2FEF3FEF4FE75FECC7010C
:1006C000B6010E949E0487FDF3CF20E030E0A9012F
:1006D000C701B6010E949E0487FF11C0E0913D0151
:1006E000F0913E010190F081E02D6DE28DE391E00B
:1006F000099546015701B7FAB094B7F8B0942AE0CB
:1007000037ED43EA5BE3C501B4010E9432044B01BB
:100710005C010E94A3046B017C010E94D2049B0136
:10072000AC01C501B4010E9431044B015C014AE0F7
:10073000C701B6010E948D01E0913D01F0913E019B
:100740000190F081E02D6EE28DE391E0099520E0CB
:1007500030E040E251E4C501B4010E9489054B013B
:100760005C010E94A3046B01E12CF12C4AE0C7015B
:10077000B6010E948D01C701B6010E94D2049B01FF
:10078000AC01C501B4010E94310420E030E040E238
:1007900051E40E9489050E94A30480E090E04AE0B1
:1007A0000E948D018BE291E00E947B018EE291E03C
:1007B0000E947B010E9456014B015C0188EEC82E0D
:1007C00083E0D82EE12CF12C0E945601DC01CB01F4
:1007D00088199909AA09BB09883E9340A105B1056A
:1007E00058F021E0C21AD108E108F10888EE880E1D
:1007F00083E0981EA11CB11CC114D104E104F104D2
:1008000019F70E944C01E9CEEDE3F1E01382128268
:1008100088EE93E0A0E0B0E084839583A683B7835D
:1008200084E091E09183808385EC90E095878487D4
:1008300084EC90E09787868780EC90E0918B808BAA
:1008400081EC90E0938B828B82EC90E0958B848B93
:1008500086EC90E0978B868B118E128E138E148E01
:1008600008955058BB27AA270E9449040C944A05B2
:100870000E943C0538F00E94430520F039F49F3F68
:1008800019F426F40C9439050EF4E095E7FB0C946A
:100890003305E92F0E945B0558F3BA176207730707
:1008A0008407950720F079F4A6F50C947D050EF4E5
:1008B000E0950B2EBA2FA02D0B01B90190010C0170
:1008C000CA01A0011124FF27591B99F0593F50F488
:1008D000503E68F11A16F040A22F232F342F4427E0
:1008E000585FF3CF469537952795A795F0405395D8
:1008F000C9F77EF41F16BA0B620B730B840BBAF0A8
:100900009150A1F0FF0FBB1F661F771F881FC2F712
:100910000EC0BA0F621F731F841F48F48795779526
:100920006795B795F7959E3F08F0B0CF9395880FE0
:1009300008F09927EE0F9795879508950E940F0567
:1009400008F481E008950E94630588F09F5798F0AD
:10095000B92F9927B751B0F0E1F0660F771F881FC4
:10096000991F1AF0BA95C9F714C0B13091F00E94DE
:100970007D05B1E008950C947D05672F782F8827B9
:10098000B85F39F0B93FCCF3869577956795B39505
:10099000D9F73EF490958095709561957F4F8F4F74
:1009A0009F4F0895E89409C097FB3EF49095809579
:1009B000709561957F4F8F4F9F4F9923A9F0F92F25
:1009C00096E9BB279395F695879577956795B795A3
:1009D000F111F8CFFAF4BB0F11F460FF1BC06F5F89
:1009E0007F4F8F4F9F4F16C0882311F096E911C09B
:1009F000772321F09EE8872F762F05C0662371F0BC
:100A000096E8862F70E060E02AF09A95660F771FCF
:100A1000881FDAF7880F9695879597F90895990FAB
:100A20000008550FAA0BE0E8FEEF16161706E807B8
:100A3000F907C0F012161306E407F50798F0621BD9
:100A4000730B840B950B39F40A2661F0232B242BAE
:100A5000252B21F408950A2609F4A140A6958FEFCD
:100A6000811D811D089597F99F6780E870E060E01F
:100A700008959FEF80EC089500240A941616170637
:100A800018060906089500240A941216130614067F
:100A900005060895092E0394000C11F4882352F0E2
:100AA000BB0F40F4BF2B11F460FF04C06F5F7F4F9A
:100AB0008F4F9F4F089557FD9058440F551F59F081
:100AC0005F3F71F04795880F97FB991F61F09F3F3B
:100AD00079F087950895121613061406551FF2CF64
:100AE0004695F1DF08C0161617061806991FF1CFB4
:100AF00086957105610508940895E894BB276627DB
:100B00007727CB0197F908950E940F0508F48FEF1E
:100B100008950E949C050C944A050E943C0538F0FB
:100B20000E94430520F0952311F00C9433050C949A
:100B3000390511240C947E050E945B0570F3959F86
:100B4000C1F3950F50E0551F629FF001729FBB27C4
:100B5000F00DB11D639FAA27F00DB11DAA1F649F60
:100B60006627B00DA11D661F829F2227B00DA11D13
:100B7000621F739FB00DA11D621F839FA00D611D99
:100B8000221F749F3327A00D611D231F849F600DBA
:100B9000211D822F762F6A2F11249F5750409AF0E3
:100BA000F1F088234AF0EE0FFF1FBB1F661F771F6F
:100BB000881F91505040A9F79E3F510580F00C943A
:100BC00033050C947E055F3FE4F3983ED4F386959D
:100BD00077956795B795F795E7959F5FC1F7FE2BDA
:100BE000880F911D9695879597F908950E940F0596
:100BF000880B990B0895A1E21A2EAA1BBB1BFD01BD
:100C00000DC0AA1FBB1FEE1FFF1FA217B307E407EB
:100C1000F50720F0A21BB30BE40BF50B661F771F43
:100C2000881F991F1A9469F7609570958095909523
:100C30009B01AC01BD01CF010895EE0FFF1F059090
:100C4000F491E02D099481E090E0F8940C9428064A
:040C5000F894FFCF46
:100C540000000000E3005F00AC008A009E002A014F
:100C640054454D5045524154555245203D20006E47
:100C7400616E00696E66006F7666002A43000D0A95
:020C840000006E
:107E0000112484B714BE81FFF0D085E080938100F7
:107E100082E08093C00088E18093C10086E0809377
:107E2000C20080E18093C4008EE0C9D0259A86E02C
:107E300020E33CEF91E0309385002093840096BBD3
:107E4000B09BFECF1D9AA8958150A9F7CC24DD24C4
:107E500088248394B5E0AB2EA1E19A2EF3E0BF2EE7
:107E6000A2D0813461F49FD0082FAFD0023811F036
:107E7000013811F484E001C083E08DD089C08234E0
:107E800011F484E103C0853419F485E0A6D080C0E4
:107E9000853579F488D0E82EFF2485D0082F10E0AE
:107EA000102F00270E291F29000F111F8ED06801E7
:107EB0006FC0863521F484E090D080E0DECF843638
:107EC00009F040C070D06FD0082F6DD080E0C81688
:107ED00080E7D80618F4F601B7BEE895C0E0D1E017
:107EE00062D089930C17E1F7F0E0CF16F0E7DF06D8
:107EF00018F0F601B7BEE89568D007B600FCFDCFD4
:107F0000A601A0E0B1E02C9130E011968C91119780
:107F100090E0982F8827822B932B1296FA010C0160
:107F200087BEE89511244E5F5F4FF1E0A038BF0790
:107F300051F7F601A7BEE89507B600FCFDCF97BE46
:107F4000E89526C08437B1F42ED02DD0F82E2BD052
:107F50003CD0F601EF2C8F010F5F1F4F84911BD097
:107F6000EA94F801C1F70894C11CD11CFA94CF0C13
:107F7000D11C0EC0853739F428D08EE10CD085E9AC
:107F80000AD08FE07ACF813511F488E018D01DD067
:107F900080E101D065CF982F8091C00085FFFCCF94
:107FA0009093C60008958091C00087FFFCCF809118
:107FB000C00084FD01C0A8958091C6000895E0E648
:107FC000F0E098E1908380830895EDDF803219F02E
:107FD00088E0F5DFFFCF84E1DECF1F93182FE3DFCA
:107FE0001150E9F7F2DF1F91089580E0E8DFEE27F6
:047FF000FF270994CA
:027FFE00040479
:0400000300007E007B
:00000001FF
